{
  "address": "0xd9446f3955d9cf5d864e5b41c6d21f2fd4243674",
  "abi": [
    {
      "inputs": [
        {
          "internalType": "address",
          "name": "priceFeedAddress",
          "type": "address"
        }
      ],
      "stateMutability": "nonpayable",
      "type": "constructor"
    },
    {
      "inputs": [],
      "name": "NotOwner",
      "type": "error"
    },
    {
      "anonymous": false,
      "inputs": [
        {
          "indexed": true,
          "internalType": "address",
          "name": "from",
          "type": "address"
        },
        {
          "indexed": false,
          "internalType": "uint256",
          "name": "amount",
          "type": "uint256"
        }
      ],
      "name": "Funded",
      "type": "event"
    },
    {
      "stateMutability": "payable",
      "type": "fallback"
    },
    {
      "inputs": [
        {
          "internalType": "address",
          "name": "",
          "type": "address"
        }
      ],
      "name": "addressToAmount",
      "outputs": [
        {
          "internalType": "uint256",
          "name": "",
          "type": "uint256"
        }
      ],
      "stateMutability": "view",
      "type": "function"
    },
    {
      "inputs": [],
      "name": "fund",
      "outputs": [],
      "stateMutability": "payable",
      "type": "function"
    },
    {
      "inputs": [
        {
          "internalType": "uint256",
          "name": "",
          "type": "uint256"
        }
      ],
      "name": "funders",
      "outputs": [
        {
          "internalType": "address",
          "name": "",
          "type": "address"
        }
      ],
      "stateMutability": "view",
      "type": "function"
    },
    {
      "inputs": [],
      "name": "i_owner",
      "outputs": [
        {
          "internalType": "address",
          "name": "",
          "type": "address"
        }
      ],
      "stateMutability": "view",
      "type": "function"
    },
    {
      "inputs": [],
      "name": "priceFeed",
      "outputs": [
        {
          "internalType": "contract AggregatorV3Interface",
          "name": "",
          "type": "address"
        }
      ],
      "stateMutability": "view",
      "type": "function"
    },
    {
      "inputs": [],
      "name": "withdraw",
      "outputs": [],
      "stateMutability": "nonpayable",
      "type": "function"
    },
    {
      "stateMutability": "payable",
      "type": "receive"
    }
  ],
  "transactionHash": "0x0fee08694ce08ebbbd461c4a478ad57ebaed6b36419ecd40b11a98a2a1acf123",
  "args": [
    "0x694aa1769357215de4fac081bf1f309adc325306"
  ],
  "numDeployments": 1,
  "solcInputHash": "6386e8840566d01732a836883515dfd6",
  "bytecode": "0x60a060405234801561001057600080fd5b50604051610f76380380610f7683398181016040528101906100329190610113565b3373ffffffffffffffffffffffffffffffffffffffff1660808173ffffffffffffffffffffffffffffffffffffffff1660601b8152505080600260006101000a81548173ffffffffffffffffffffffffffffffffffffffff021916908373ffffffffffffffffffffffffffffffffffffffff16021790555050610140565b600080fd5b600073ffffffffffffffffffffffffffffffffffffffff82169050919050565b60006100e0826100b5565b9050919050565b6100f0816100d5565b81146100fb57600080fd5b50565b60008151905061010d816100e7565b92915050565b600060208284031215610129576101286100b0565b5b6000610137848285016100fe565b91505092915050565b60805160601c610e11610165600039600081816102f201526105580152610e116000f3fe6080604052600436106100595760003560e01c80633c7e7d28146100725780633ccfd60b146100af578063741bef1a146100c6578063b60d4288146100f1578063dba6335f146100fb578063dc0d3dff1461012657610068565b3661006857610066610163565b005b610070610163565b005b34801561007e57600080fd5b506100996004803603810190610094919061079f565b6102d8565b6040516100a691906107e5565b60405180910390f35b3480156100bb57600080fd5b506100c46102f0565b005b3480156100d257600080fd5b506100db610530565b6040516100e8919061085f565b60405180910390f35b6100f9610163565b005b34801561010757600080fd5b50610110610556565b60405161011d9190610889565b60405180910390f35b34801561013257600080fd5b5061014d600480360381019061014891906108d0565b61057a565b60405161015a9190610889565b60405180910390f35b6802b5e3af16b18800006101a2600260009054906101000a900473ffffffffffffffffffffffffffffffffffffffff16346105b990919063ffffffff16565b10156101e3576040517f08c379a00000000000000000000000000000000000000000000000000000000081526004016101da9061095a565b60405180910390fd5b6000339080600181540180825580915050600190039060005260206000200160009091909190916101000a81548173ffffffffffffffffffffffffffffffffffffffff021916908373ffffffffffffffffffffffffffffffffffffffff16021790555034600160003373ffffffffffffffffffffffffffffffffffffffff1673ffffffffffffffffffffffffffffffffffffffff16815260200190815260200160002050503373ffffffffffffffffffffffffffffffffffffffff167f5af8184bef8e4b45eb9f6ed7734d04da38ced226495548f46e0c8ff8d7d9a524346040516102ce91906107e5565b60405180910390a2565b60016020528060005260406000206000915090505481565b7f000000000000000000000000000000000000000000000000000000000000000073ffffffffffffffffffffffffffffffffffffffff163373ffffffffffffffffffffffffffffffffffffffff1614610375576040517f30cd747100000000000000000000000000000000000000000000000000000000815260040160405180910390fd5b60005b60008054905081101561042057600080828154811061039a5761039961097a565b5b9060005260206000200160009054906101000a900473ffffffffffffffffffffffffffffffffffffffff1690506000600160008373ffffffffffffffffffffffffffffffffffffffff1673ffffffffffffffffffffffffffffffffffffffff16815260200190815260200160002081905550508080610418906109d8565b915050610378565b50600067ffffffffffffffff81111561043c5761043b610a21565b5b60405190808252806020026020018201604052801561046a5781602001602082028036833780820191505090505b5060009080519060200190610480929190610695565b5060003373ffffffffffffffffffffffffffffffffffffffff16476040516104a790610a81565b60006040518083038185875af1925050503d80600081146104e4576040519150601f19603f3d011682016040523d82523d6000602084013e6104e9565b606091505b505090508061052d576040517f08c379a000000000000000000000000000000000000000000000000000000000815260040161052490610ae2565b60405180910390fd5b50565b600260009054906101000a900473ffffffffffffffffffffffffffffffffffffffff1681565b7f000000000000000000000000000000000000000000000000000000000000000081565b6000818154811061058a57600080fd5b906000526020600020016000915054906101000a900473ffffffffffffffffffffffffffffffffffffffff1681565b6000806105c5836105f5565b90506000670de0b6b3a764000085836105de9190610b02565b6105e89190610b8b565b9050809250505092915050565b6000808273ffffffffffffffffffffffffffffffffffffffff1663feaf968c6040518163ffffffff1660e01b815260040160a06040518083038186803b15801561063e57600080fd5b505afa158015610652573d6000803e3d6000fd5b505050506040513d601f19601f820116820180604052508101906106769190610c49565b5050509150506402540be4008161068d9190610cc4565b915050919050565b82805482825590600052602060002090810192821561070e579160200282015b8281111561070d5782518260006101000a81548173ffffffffffffffffffffffffffffffffffffffff021916908373ffffffffffffffffffffffffffffffffffffffff160217905550916020019190600101906106b5565b5b50905061071b919061071f565b5090565b5b80821115610738576000816000905550600101610720565b5090565b600080fd5b600073ffffffffffffffffffffffffffffffffffffffff82169050919050565b600061076c82610741565b9050919050565b61077c81610761565b811461078757600080fd5b50565b60008135905061079981610773565b92915050565b6000602082840312156107b5576107b461073c565b5b60006107c38482850161078a565b91505092915050565b6000819050919050565b6107df816107cc565b82525050565b60006020820190506107fa60008301846107d6565b92915050565b6000819050919050565b600061082561082061081b84610741565b610800565b610741565b9050919050565b60006108378261080a565b9050919050565b60006108498261082c565b9050919050565b6108598161083e565b82525050565b60006020820190506108746000830184610850565b92915050565b61088381610761565b82525050565b600060208201905061089e600083018461087a565b92915050565b6108ad816107cc565b81146108b857600080fd5b50565b6000813590506108ca816108a4565b92915050565b6000602082840312156108e6576108e561073c565b5b60006108f4848285016108bb565b91505092915050565b600082825260208201905092915050565b7f4469646e742073656e6420656e6f756768000000000000000000000000000000600082015250565b60006109446011836108fd565b915061094f8261090e565b602082019050919050565b6000602082019050818103600083015261097381610937565b9050919050565b7f4e487b7100000000000000000000000000000000000000000000000000000000600052603260045260246000fd5b7f4e487b7100000000000000000000000000000000000000000000000000000000600052601160045260246000fd5b60006109e3826107cc565b91507fffffffffffffffffffffffffffffffffffffffffffffffffffffffffffffffff821415610a1657610a156109a9565b5b600182019050919050565b7f4e487b7100000000000000000000000000000000000000000000000000000000600052604160045260246000fd5b600081905092915050565b50565b6000610a6b600083610a50565b9150610a7682610a5b565b600082019050919050565b6000610a8c82610a5e565b9150819050919050565b7f43616c6c206661696c6564210000000000000000000000000000000000000000600082015250565b6000610acc600c836108fd565b9150610ad782610a96565b602082019050919050565b60006020820190508181036000830152610afb81610abf565b9050919050565b6000610b0d826107cc565b9150610b18836107cc565b9250817fffffffffffffffffffffffffffffffffffffffffffffffffffffffffffffffff0483118215151615610b5157610b506109a9565b5b828202905092915050565b7f4e487b7100000000000000000000000000000000000000000000000000000000600052601260045260246000fd5b6000610b96826107cc565b9150610ba1836107cc565b925082610bb157610bb0610b5c565b5b828204905092915050565b600069ffffffffffffffffffff82169050919050565b610bdb81610bbc565b8114610be657600080fd5b50565b600081519050610bf881610bd2565b92915050565b6000819050919050565b610c1181610bfe565b8114610c1c57600080fd5b50565b600081519050610c2e81610c08565b92915050565b600081519050610c43816108a4565b92915050565b600080600080600060a08688031215610c6557610c6461073c565b5b6000610c7388828901610be9565b9550506020610c8488828901610c1f565b9450506040610c9588828901610c34565b9350506060610ca688828901610c34565b9250506080610cb788828901610be9565b9150509295509295909350565b6000610ccf82610bfe565b9150610cda83610bfe565b9250827f7fffffffffffffffffffffffffffffffffffffffffffffffffffffffffffffff0482116000841360008413161615610d1957610d186109a9565b5b817f80000000000000000000000000000000000000000000000000000000000000000583126000841260008413161615610d5657610d556109a9565b5b827f80000000000000000000000000000000000000000000000000000000000000000582126000841360008412161615610d9357610d926109a9565b5b827f7fffffffffffffffffffffffffffffffffffffffffffffffffffffffffffffff0582126000841260008412161615610dd057610dcf6109a9565b5b82820290509291505056fea26469706673582212203d4af234ab376090373cf897f4cc80d3c7e8919abfb94569b658da35090779b864736f6c63430008080033",
  "devdoc": {
    "kind": "dev",
    "methods": {},
    "version": 1
  },
  "userdoc": {
    "kind": "user",
    "methods": {},
    "version": 1
  },
  "storageLayout": {
    "storage": [
      {
        "astId": 61,
        "contract": "contracts/FundMe.sol:FundMe",
        "label": "funders",
        "offset": 0,
        "slot": "0",
        "type": "t_array(t_address)dyn_storage"
      },
      {
        "astId": 71,
        "contract": "contracts/FundMe.sol:FundMe",
        "label": "addressToAmount",
        "offset": 0,
        "slot": "1",
        "type": "t_mapping(t_address,t_uint256)"
      },
      {
        "astId": 76,
        "contract": "contracts/FundMe.sol:FundMe",
        "label": "priceFeed",
        "offset": 0,
        "slot": "2",
        "type": "t_contract(AggregatorV3Interface)45"
      }
    ],
    "types": {
      "t_address": {
        "encoding": "inplace",
        "label": "address",
        "numberOfBytes": "20"
      },
      "t_array(t_address)dyn_storage": {
        "base": "t_address",
        "encoding": "dynamic_array",
        "label": "address[]",
        "numberOfBytes": "32"
      },
      "t_contract(AggregatorV3Interface)45": {
        "encoding": "inplace",
        "label": "contract AggregatorV3Interface",
        "numberOfBytes": "20"
      },
      "t_mapping(t_address,t_uint256)": {
        "encoding": "mapping",
        "key": "t_address",
        "label": "mapping(address => uint256)",
        "numberOfBytes": "32",
        "value": "t_uint256"
      },
      "t_uint256": {
        "encoding": "inplace",
        "label": "uint256",
        "numberOfBytes": "32"
      }
    }
  }
}